{
  "_format": "hh-sol-artifact-1",
  "contractName": "NFT",
  "sourceName": "contracts/NFT.sol",
  "abi": [
    {
      "inputs": [
        {
          "internalType": "address",
          "name": "_contractaddress",
          "type": "address"
        }
      ],
      "stateMutability": "nonpayable",
      "type": "constructor"
    },
    {
      "anonymous": false,
      "inputs": [
        {
          "indexed": true,
          "internalType": "address",
          "name": "owner",
          "type": "address"
        },
        {
          "indexed": true,
          "internalType": "address",
          "name": "approved",
          "type": "address"
        },
        {
          "indexed": true,
          "internalType": "uint256",
          "name": "tokenId",
          "type": "uint256"
        }
      ],
      "name": "Approval",
      "type": "event"
    },
    {
      "anonymous": false,
      "inputs": [
        {
          "indexed": true,
          "internalType": "address",
          "name": "owner",
          "type": "address"
        },
        {
          "indexed": true,
          "internalType": "address",
          "name": "operator",
          "type": "address"
        },
        {
          "indexed": false,
          "internalType": "bool",
          "name": "approved",
          "type": "bool"
        }
      ],
      "name": "ApprovalForAll",
      "type": "event"
    },
    {
      "anonymous": false,
      "inputs": [
        {
          "indexed": true,
          "internalType": "uint256",
          "name": "tokenId",
          "type": "uint256"
        },
        {
          "indexed": false,
          "internalType": "string",
          "name": "tokenURI",
          "type": "string"
        }
      ],
      "name": "NFTMinted",
      "type": "event"
    },
    {
      "anonymous": false,
      "inputs": [
        {
          "indexed": true,
          "internalType": "address",
          "name": "previousOwner",
          "type": "address"
        },
        {
          "indexed": true,
          "internalType": "address",
          "name": "newOwner",
          "type": "address"
        }
      ],
      "name": "OwnershipTransferred",
      "type": "event"
    },
    {
      "anonymous": false,
      "inputs": [
        {
          "indexed": true,
          "internalType": "address",
          "name": "from",
          "type": "address"
        },
        {
          "indexed": true,
          "internalType": "address",
          "name": "to",
          "type": "address"
        },
        {
          "indexed": true,
          "internalType": "uint256",
          "name": "tokenId",
          "type": "uint256"
        }
      ],
      "name": "Transfer",
      "type": "event"
    },
    {
      "inputs": [],
      "name": "BASE_URI",
      "outputs": [
        {
          "internalType": "string",
          "name": "",
          "type": "string"
        }
      ],
      "stateMutability": "view",
      "type": "function"
    },
    {
      "inputs": [],
      "name": "Maxsupply",
      "outputs": [
        {
          "internalType": "uint256",
          "name": "",
          "type": "uint256"
        }
      ],
      "stateMutability": "view",
      "type": "function"
    },
    {
      "inputs": [
        {
          "internalType": "address",
          "name": "to",
          "type": "address"
        },
        {
          "internalType": "uint256",
          "name": "tokenId",
          "type": "uint256"
        }
      ],
      "name": "approve",
      "outputs": [],
      "stateMutability": "nonpayable",
      "type": "function"
    },
    {
      "inputs": [
        {
          "internalType": "address",
          "name": "owner",
          "type": "address"
        }
      ],
      "name": "balanceOf",
      "outputs": [
        {
          "internalType": "uint256",
          "name": "",
          "type": "uint256"
        }
      ],
      "stateMutability": "view",
      "type": "function"
    },
    {
      "inputs": [],
      "name": "baseExtension",
      "outputs": [
        {
          "internalType": "string",
          "name": "",
          "type": "string"
        }
      ],
      "stateMutability": "view",
      "type": "function"
    },
    {
      "inputs": [
        {
          "internalType": "string",
          "name": "baseURI",
          "type": "string"
        }
      ],
      "name": "changebaseURI",
      "outputs": [],
      "stateMutability": "nonpayable",
      "type": "function"
    },
    {
      "inputs": [
        {
          "internalType": "address",
          "name": "_to",
          "type": "address"
        }
      ],
      "name": "createToken",
      "outputs": [
        {
          "internalType": "uint256",
          "name": "",
          "type": "uint256"
        }
      ],
      "stateMutability": "payable",
      "type": "function"
    },
    {
      "inputs": [
        {
          "internalType": "uint256",
          "name": "tokenId",
          "type": "uint256"
        }
      ],
      "name": "getApproved",
      "outputs": [
        {
          "internalType": "address",
          "name": "",
          "type": "address"
        }
      ],
      "stateMutability": "view",
      "type": "function"
    },
    {
      "inputs": [
        {
          "internalType": "address",
          "name": "owner",
          "type": "address"
        },
        {
          "internalType": "address",
          "name": "operator",
          "type": "address"
        }
      ],
      "name": "isApprovedForAll",
      "outputs": [
        {
          "internalType": "bool",
          "name": "",
          "type": "bool"
        }
      ],
      "stateMutability": "view",
      "type": "function"
    },
    {
      "inputs": [],
      "name": "marketContract",
      "outputs": [
        {
          "internalType": "address",
          "name": "",
          "type": "address"
        }
      ],
      "stateMutability": "view",
      "type": "function"
    },
    {
      "inputs": [],
      "name": "mintingRate",
      "outputs": [
        {
          "internalType": "uint256",
          "name": "",
          "type": "uint256"
        }
      ],
      "stateMutability": "view",
      "type": "function"
    },
    {
      "inputs": [],
      "name": "name",
      "outputs": [
        {
          "internalType": "string",
          "name": "",
          "type": "string"
        }
      ],
      "stateMutability": "view",
      "type": "function"
    },
    {
      "inputs": [],
      "name": "owner",
      "outputs": [
        {
          "internalType": "address",
          "name": "",
          "type": "address"
        }
      ],
      "stateMutability": "view",
      "type": "function"
    },
    {
      "inputs": [
        {
          "internalType": "uint256",
          "name": "tokenId",
          "type": "uint256"
        }
      ],
      "name": "ownerOf",
      "outputs": [
        {
          "internalType": "address",
          "name": "",
          "type": "address"
        }
      ],
      "stateMutability": "view",
      "type": "function"
    },
    {
      "inputs": [],
      "name": "renounceOwnership",
      "outputs": [],
      "stateMutability": "nonpayable",
      "type": "function"
    },
    {
      "inputs": [
        {
          "internalType": "address",
          "name": "from",
          "type": "address"
        },
        {
          "internalType": "address",
          "name": "to",
          "type": "address"
        },
        {
          "internalType": "uint256",
          "name": "tokenId",
          "type": "uint256"
        }
      ],
      "name": "safeTransferFrom",
      "outputs": [],
      "stateMutability": "nonpayable",
      "type": "function"
    },
    {
      "inputs": [
        {
          "internalType": "address",
          "name": "from",
          "type": "address"
        },
        {
          "internalType": "address",
          "name": "to",
          "type": "address"
        },
        {
          "internalType": "uint256",
          "name": "tokenId",
          "type": "uint256"
        },
        {
          "internalType": "bytes",
          "name": "data",
          "type": "bytes"
        }
      ],
      "name": "safeTransferFrom",
      "outputs": [],
      "stateMutability": "nonpayable",
      "type": "function"
    },
    {
      "inputs": [
        {
          "internalType": "address",
          "name": "operator",
          "type": "address"
        },
        {
          "internalType": "bool",
          "name": "approved",
          "type": "bool"
        }
      ],
      "name": "setApprovalForAll",
      "outputs": [],
      "stateMutability": "nonpayable",
      "type": "function"
    },
    {
      "inputs": [
        {
          "internalType": "bytes4",
          "name": "interfaceId",
          "type": "bytes4"
        }
      ],
      "name": "supportsInterface",
      "outputs": [
        {
          "internalType": "bool",
          "name": "",
          "type": "bool"
        }
      ],
      "stateMutability": "view",
      "type": "function"
    },
    {
      "inputs": [],
      "name": "symbol",
      "outputs": [
        {
          "internalType": "string",
          "name": "",
          "type": "string"
        }
      ],
      "stateMutability": "view",
      "type": "function"
    },
    {
      "inputs": [],
      "name": "tokenAddress",
      "outputs": [
        {
          "internalType": "contract IERC20",
          "name": "",
          "type": "address"
        }
      ],
      "stateMutability": "view",
      "type": "function"
    },
    {
      "inputs": [
        {
          "internalType": "uint256",
          "name": "tokenId",
          "type": "uint256"
        }
      ],
      "name": "tokenURI",
      "outputs": [
        {
          "internalType": "string",
          "name": "",
          "type": "string"
        }
      ],
      "stateMutability": "view",
      "type": "function"
    },
    {
      "inputs": [
        {
          "internalType": "address",
          "name": "from",
          "type": "address"
        },
        {
          "internalType": "address",
          "name": "to",
          "type": "address"
        },
        {
          "internalType": "uint256",
          "name": "tokenId",
          "type": "uint256"
        }
      ],
      "name": "transferFrom",
      "outputs": [],
      "stateMutability": "nonpayable",
      "type": "function"
    },
    {
      "inputs": [
        {
          "internalType": "address",
          "name": "newOwner",
          "type": "address"
        }
      ],
      "name": "transferOwnership",
      "outputs": [],
      "stateMutability": "nonpayable",
      "type": "function"
    },
    {
      "inputs": [],
      "name": "withdraw",
      "outputs": [],
      "stateMutability": "payable",
      "type": "function"
    }
  ],
  "bytecode": "0x60c06040526005608081905264173539b7b760d91b60a09081526200002891600c9190620001b7565b5060405180608001604052806050815260200162001fa26050913980516200005991600d91602090910190620001b7565b506003600e5568056bc75e2d63100000600f553480156200007957600080fd5b5060405162001ff238038062001ff28339810160408190526200009c916200025d565b604080518082018252601481527f43727970746f204c65616775652047616d696e6700000000000000000000000060208083019182528351808501909452600684526510d311d3919560d21b908401528151919291620000ff91600091620001b7565b50805162000115906001906020840190620001b7565b505050620001326200012c6200016160201b60201c565b62000165565b600980546001600160a01b039092166001600160a01b0319928316179055600b805490911633179055620002ca565b3390565b600780546001600160a01b038381166001600160a01b0319831681179093556040519116919082907f8be0079c531659141344cd1fd0a4f28419497f9722a3daafe3b4186f6b6457e090600090a35050565b828054620001c5906200028d565b90600052602060002090601f016020900481019282620001e9576000855562000234565b82601f106200020457805160ff191683800117855562000234565b8280016001018555821562000234579182015b828111156200023457825182559160200191906001019062000217565b506200024292915062000246565b5090565b5b8082111562000242576000815560010162000247565b6000602082840312156200026f578081fd5b81516001600160a01b038116811462000286578182fd5b9392505050565b600181811c90821680620002a257607f821691505b60208210811415620002c457634e487b7160e01b600052602260045260246000fd5b50919050565b611cc880620002da6000396000f3fe6080604052600436106101965760003560e01c806395d89b41116100e1578063be4299a61161008a578063c87b56dd11610064578063c87b56dd1461041e578063dbddb26a1461043e578063e985e9c514610453578063f2fde38b1461049c57600080fd5b8063be4299a6146103e0578063c21ab7f9146103f6578063c66828621461040957600080fd5b8063a1794bcd116100bb578063a1794bcd14610380578063a22cb465146103a0578063b88d4fde146103c057600080fd5b806395d89b41146103355780639d76ea581461034a5780639f7ff8891461036a57600080fd5b806342842e0e1161014357806370a082311161011d57806370a08231146102d4578063715018a6146103025780638da5cb5b1461031757600080fd5b806342842e0e14610274578063560f45ca146102945780636352211e146102b457600080fd5b8063095ea7b311610174578063095ea7b31461022a57806323b872dd1461024c5780633ccfd60b1461026c57600080fd5b806301ffc9a71461019b57806306fdde03146101d0578063081812fc146101f2575b600080fd5b3480156101a757600080fd5b506101bb6101b6366004611961565b6104bc565b60405190151581526020015b60405180910390f35b3480156101dc57600080fd5b506101e561050e565b6040516101c79190611b69565b3480156101fe57600080fd5b5061021261020d3660046119df565b6105a0565b6040516001600160a01b0390911681526020016101c7565b34801561023657600080fd5b5061024a61024536600461191c565b6105c7565b005b34801561025857600080fd5b5061024a610267366004611832565b6106e2565b61024a61075a565b34801561028057600080fd5b5061024a61028f366004611832565b610868565b3480156102a057600080fd5b5061024a6102af366004611999565b610883565b3480156102c057600080fd5b506102126102cf3660046119df565b6108a2565b3480156102e057600080fd5b506102f46102ef3660046117e6565b610907565b6040519081526020016101c7565b34801561030e57600080fd5b5061024a6109a1565b34801561032357600080fd5b506007546001600160a01b0316610212565b34801561034157600080fd5b506101e56109b5565b34801561035657600080fd5b50600954610212906001600160a01b031681565b34801561037657600080fd5b506102f4600f5481565b34801561038c57600080fd5b50600a54610212906001600160a01b031681565b3480156103ac57600080fd5b5061024a6103bb3660046118e6565b6109c4565b3480156103cc57600080fd5b5061024a6103db36600461186d565b6109cf565b3480156103ec57600080fd5b506102f4600e5481565b6102f46104043660046117e6565b610a4e565b34801561041557600080fd5b506101e5610b1d565b34801561042a57600080fd5b506101e56104393660046119df565b610bab565b34801561044a57600080fd5b506101e5610c97565b34801561045f57600080fd5b506101bb61046e366004611800565b6001600160a01b03918216600090815260056020908152604080832093909416825291909152205460ff1690565b3480156104a857600080fd5b5061024a6104b73660046117e6565b610ca4565b60006001600160e01b031982166380ac58cd60e01b14806104ed57506001600160e01b03198216635b5e139f60e01b145b8061050857506301ffc9a760e01b6001600160e01b03198316145b92915050565b60606000805461051d90611beb565b80601f016020809104026020016040519081016040528092919081815260200182805461054990611beb565b80156105965780601f1061056b57610100808354040283529160200191610596565b820191906000526020600020905b81548152906001019060200180831161057957829003601f168201915b5050505050905090565b60006105ab82610d31565b506000908152600460205260409020546001600160a01b031690565b60006105d2826108a2565b9050806001600160a01b0316836001600160a01b031614156106455760405162461bcd60e51b815260206004820152602160248201527f4552433732313a20617070726f76616c20746f2063757272656e74206f776e656044820152603960f91b60648201526084015b60405180910390fd5b336001600160a01b03821614806106615750610661813361046e565b6106d35760405162461bcd60e51b815260206004820152603e60248201527f4552433732313a20617070726f76652063616c6c6572206973206e6f7420746f60448201527f6b656e206f776e6572206e6f7220617070726f76656420666f7220616c6c0000606482015260840161063c565b6106dd8383610d95565b505050565b6106ec3382610e03565b61074f5760405162461bcd60e51b815260206004820152602e60248201527f4552433732313a2063616c6c6572206973206e6f7420746f6b656e206f776e6560448201526d1c881b9bdc88185c1c1c9bdd995960921b606482015260840161063c565b6106dd838383610e82565b610762611036565b6009546040516370a0823160e01b81523060048201526001600160a01b039091169063a9059cbb90339083906370a082319060240160206040518083038186803b1580156107af57600080fd5b505afa1580156107c3573d6000803e3d6000fd5b505050506040513d601f19601f820116820180604052508101906107e791906119f7565b6040516001600160e01b031960e085901b1681526001600160a01b0390921660048301526024820152604401602060405180830381600087803b15801561082d57600080fd5b505af1158015610841573d6000803e3d6000fd5b505050506040513d601f19601f820116820180604052508101906108659190611945565b50565b6106dd838383604051806020016040528060008152506109cf565b61088b611036565b805161089e90600d9060208401906116bb565b5050565b6000818152600260205260408120546001600160a01b0316806105085760405162461bcd60e51b815260206004820152601860248201527f4552433732313a20696e76616c696420746f6b656e2049440000000000000000604482015260640161063c565b60006001600160a01b0382166109855760405162461bcd60e51b815260206004820152602960248201527f4552433732313a2061646472657373207a65726f206973206e6f74206120766160448201527f6c6964206f776e65720000000000000000000000000000000000000000000000606482015260840161063c565b506001600160a01b031660009081526003602052604090205490565b6109a9611036565b6109b36000611090565b565b60606001805461051d90611beb565b61089e3383836110e2565b6109d93383610e03565b610a3c5760405162461bcd60e51b815260206004820152602e60248201527f4552433732313a2063616c6c6572206973206e6f7420746f6b656e206f776e6560448201526d1c881b9bdc88185c1c1c9bdd995960921b606482015260840161063c565b610a48848484846111b1565b50505050565b6000610a5e600880546001019055565b6000610a6960085490565b600e549091506002908110610a7d57600080fd5b600954600f546040516323b872dd60e01b815233600482015230602482015260448101919091526001600160a01b03909116906323b872dd90606401602060405180830381600087803b158015610ad357600080fd5b505af1158015610ae7573d6000803e3d6000fd5b505050506040513d601f19601f82011682018060405250810190610b0b9190611945565b50610b16848361122f565b5092915050565b600c8054610b2a90611beb565b80601f0160208091040260200160405190810160405280929190818152602001828054610b5690611beb565b8015610ba35780601f10610b7857610100808354040283529160200191610ba3565b820191906000526020600020905b815481529060010190602001808311610b8657829003601f168201915b505050505081565b6000818152600260205260409020546060906001600160a01b0316610c385760405162461bcd60e51b815260206004820152602f60248201527f4552433732314d657461646174613a2055524920717565727920666f72206e6f60448201527f6e6578697374656e7420746f6b656e0000000000000000000000000000000000606482015260840161063c565b6000610c42611249565b90506000815111610c625760405180602001604052806000815250610c90565b80610c6c84611271565b600c604051602001610c8093929190611ad3565b6040516020818303038152906040525b9392505050565b600d8054610b2a90611beb565b610cac611036565b6001600160a01b038116610d285760405162461bcd60e51b815260206004820152602660248201527f4f776e61626c653a206e6577206f776e657220697320746865207a65726f206160448201527f6464726573730000000000000000000000000000000000000000000000000000606482015260840161063c565b61086581611090565b6000818152600260205260409020546001600160a01b03166108655760405162461bcd60e51b815260206004820152601860248201527f4552433732313a20696e76616c696420746f6b656e2049440000000000000000604482015260640161063c565b600081815260046020526040902080546001600160a01b0319166001600160a01b0384169081179091558190610dca826108a2565b6001600160a01b03167f8c5be1e5ebec7d5bd14f71427d1e84f3dd0314c0f7b2291e5b200ac8c7c3b92560405160405180910390a45050565b600080610e0f836108a2565b9050806001600160a01b0316846001600160a01b03161480610e5657506001600160a01b0380821660009081526005602090815260408083209388168352929052205460ff165b80610e7a5750836001600160a01b0316610e6f846105a0565b6001600160a01b0316145b949350505050565b826001600160a01b0316610e95826108a2565b6001600160a01b031614610f115760405162461bcd60e51b815260206004820152602560248201527f4552433732313a207472616e736665722066726f6d20696e636f72726563742060448201527f6f776e6572000000000000000000000000000000000000000000000000000000606482015260840161063c565b6001600160a01b038216610f735760405162461bcd60e51b8152602060048201526024808201527f4552433732313a207472616e7366657220746f20746865207a65726f206164646044820152637265737360e01b606482015260840161063c565b610f7e600082610d95565b6001600160a01b0383166000908152600360205260408120805460019290610fa7908490611ba8565b90915550506001600160a01b0382166000908152600360205260408120805460019290610fd5908490611b7c565b909155505060008181526002602052604080822080546001600160a01b0319166001600160a01b0386811691821790925591518493918716917fddf252ad1be2c89b69c2b068fc378daa952ba7f163c4a11628f55a4df523b3ef91a4505050565b6007546001600160a01b031633146109b35760405162461bcd60e51b815260206004820181905260248201527f4f776e61626c653a2063616c6c6572206973206e6f7420746865206f776e6572604482015260640161063c565b600780546001600160a01b038381166001600160a01b0319831681179093556040519116919082907f8be0079c531659141344cd1fd0a4f28419497f9722a3daafe3b4186f6b6457e090600090a35050565b816001600160a01b0316836001600160a01b031614156111445760405162461bcd60e51b815260206004820152601960248201527f4552433732313a20617070726f766520746f2063616c6c657200000000000000604482015260640161063c565b6001600160a01b03838116600081815260056020908152604080832094871680845294825291829020805460ff191686151590811790915591519182527f17307eab39ab6107e8899845ad3d59bd9653f200f220920489ca2b5937696c31910160405180910390a3505050565b6111bc848484610e82565b6111c8848484846113a3565b610a485760405162461bcd60e51b815260206004820152603260248201527f4552433732313a207472616e7366657220746f206e6f6e20455243373231526560448201527131b2b4bb32b91034b6b83632b6b2b73a32b960711b606482015260840161063c565b61089e8282604051806020016040528060008152506114fb565b6060600d60405160200161125d9190611b10565b604051602081830303815290604052905090565b6060816112955750506040805180820190915260018152600360fc1b602082015290565b8160005b81156112bf57806112a981611c26565b91506112b89050600a83611b94565b9150611299565b60008167ffffffffffffffff8111156112e857634e487b7160e01b600052604160045260246000fd5b6040519080825280601f01601f191660200182016040528015611312576020820181803683370190505b5090505b8415610e7a57611327600183611ba8565b9150611334600a86611c41565b61133f906030611b7c565b60f81b81838151811061136257634e487b7160e01b600052603260045260246000fd5b60200101907effffffffffffffffffffffffffffffffffffffffffffffffffffffffffffff1916908160001a90535061139c600a86611b94565b9450611316565b60006001600160a01b0384163b156114f057604051630a85bd0160e11b81526001600160a01b0385169063150b7a02906113e7903390899088908890600401611b2d565b602060405180830381600087803b15801561140157600080fd5b505af1925050508015611431575060408051601f3d908101601f1916820190925261142e9181019061197d565b60015b6114d6573d80801561145f576040519150601f19603f3d011682016040523d82523d6000602084013e611464565b606091505b5080516114ce5760405162461bcd60e51b815260206004820152603260248201527f4552433732313a207472616e7366657220746f206e6f6e20455243373231526560448201527131b2b4bb32b91034b6b83632b6b2b73a32b960711b606482015260840161063c565b805181602001fd5b6001600160e01b031916630a85bd0160e11b149050610e7a565b506001949350505050565b6115058383611579565b61151260008484846113a3565b6106dd5760405162461bcd60e51b815260206004820152603260248201527f4552433732313a207472616e7366657220746f206e6f6e20455243373231526560448201527131b2b4bb32b91034b6b83632b6b2b73a32b960711b606482015260840161063c565b6001600160a01b0382166115cf5760405162461bcd60e51b815260206004820181905260248201527f4552433732313a206d696e7420746f20746865207a65726f2061646472657373604482015260640161063c565b6000818152600260205260409020546001600160a01b0316156116345760405162461bcd60e51b815260206004820152601c60248201527f4552433732313a20746f6b656e20616c7265616479206d696e74656400000000604482015260640161063c565b6001600160a01b038216600090815260036020526040812080546001929061165d908490611b7c565b909155505060008181526002602052604080822080546001600160a01b0319166001600160a01b03861690811790915590518392907fddf252ad1be2c89b69c2b068fc378daa952ba7f163c4a11628f55a4df523b3ef908290a45050565b8280546116c790611beb565b90600052602060002090601f0160209004810192826116e9576000855561172f565b82601f1061170257805160ff191683800117855561172f565b8280016001018555821561172f579182015b8281111561172f578251825591602001919060010190611714565b5061173b92915061173f565b5090565b5b8082111561173b5760008155600101611740565b600067ffffffffffffffff8084111561176f5761176f611c81565b604051601f8501601f19908116603f0116810190828211818310171561179757611797611c81565b816040528093508581528686860111156117b057600080fd5b858560208301376000602087830101525050509392505050565b80356001600160a01b03811681146117e157600080fd5b919050565b6000602082840312156117f7578081fd5b610c90826117ca565b60008060408385031215611812578081fd5b61181b836117ca565b9150611829602084016117ca565b90509250929050565b600080600060608486031215611846578081fd5b61184f846117ca565b925061185d602085016117ca565b9150604084013590509250925092565b60008060008060808587031215611882578081fd5b61188b856117ca565b9350611899602086016117ca565b925060408501359150606085013567ffffffffffffffff8111156118bb578182fd5b8501601f810187136118cb578182fd5b6118da87823560208401611754565b91505092959194509250565b600080604083850312156118f8578182fd5b611901836117ca565b9150602083013561191181611c97565b809150509250929050565b6000806040838503121561192e578182fd5b611937836117ca565b946020939093013593505050565b600060208284031215611956578081fd5b8151610c9081611c97565b600060208284031215611972578081fd5b8135610c9081611ca5565b60006020828403121561198e578081fd5b8151610c9081611ca5565b6000602082840312156119aa578081fd5b813567ffffffffffffffff8111156119c0578182fd5b8201601f810184136119d0578182fd5b610e7a84823560208401611754565b6000602082840312156119f0578081fd5b5035919050565b600060208284031215611a08578081fd5b5051919050565b60008151808452611a27816020860160208601611bbf565b601f01601f19169290920160200192915050565b8054600090600181811c9080831680611a5557607f831692505b6020808410821415611a7557634e487b7160e01b86526022600452602486fd5b818015611a895760018114611a9a57611ac7565b60ff19861689528489019650611ac7565b60008881526020902060005b86811015611abf5781548b820152908501908301611aa6565b505084890196505b50505050505092915050565b60008451611ae5818460208901611bbf565b845190830190611af9818360208901611bbf565b611b0581830186611a3b565b979650505050505050565b6000611b1c8284611a3b565b602f60f81b81526001019392505050565b60006001600160a01b03808716835280861660208401525083604083015260806060830152611b5f6080830184611a0f565b9695505050505050565b602081526000610c906020830184611a0f565b60008219821115611b8f57611b8f611c55565b500190565b600082611ba357611ba3611c6b565b500490565b600082821015611bba57611bba611c55565b500390565b60005b83811015611bda578181015183820152602001611bc2565b83811115610a485750506000910152565b600181811c90821680611bff57607f821691505b60208210811415611c2057634e487b7160e01b600052602260045260246000fd5b50919050565b6000600019821415611c3a57611c3a611c55565b5060010190565b600082611c5057611c50611c6b565b500690565b634e487b7160e01b600052601160045260246000fd5b634e487b7160e01b600052601260045260246000fd5b634e487b7160e01b600052604160045260246000fd5b801515811461086557600080fd5b6001600160e01b03198116811461086557600080fdfea164736f6c6343000804000a68747470733a2f2f676174657761792e70696e6174612e636c6f75642f697066732f516d514741366b38346d344c615a545178594c52546f7a485638666b51436e7965346f613879445672346f377a56",
  "linkReferences": {},
  "deployedLinkReferences": {}
}